{
  "address": "0x11A45A5d00E46131302Ac0cc4e73549D245f05A8",
  "abi": [
    {
      "inputs": [
        {
          "internalType": "address",
          "name": "tokenAddress",
          "type": "address"
        },
        {
          "internalType": "bytes32",
          "name": "root",
          "type": "bytes32"
        }
      ],
      "stateMutability": "nonpayable",
      "type": "constructor"
    },
    {
      "anonymous": false,
      "inputs": [
        {
          "indexed": false,
          "internalType": "uint256",
          "name": "index",
          "type": "uint256"
        },
        {
          "indexed": false,
          "internalType": "address",
          "name": "account",
          "type": "address"
        },
        {
          "indexed": false,
          "internalType": "uint256",
          "name": "amount",
          "type": "uint256"
        }
      ],
      "name": "Claimed",
      "type": "event"
    },
    {
      "inputs": [
        {
          "internalType": "uint256",
          "name": "index",
          "type": "uint256"
        },
        {
          "internalType": "address",
          "name": "account",
          "type": "address"
        },
        {
          "internalType": "uint256",
          "name": "amount",
          "type": "uint256"
        },
        {
          "internalType": "bytes32[]",
          "name": "merkleProof",
          "type": "bytes32[]"
        }
      ],
      "name": "claim",
      "outputs": [],
      "stateMutability": "nonpayable",
      "type": "function"
    },
    {
      "inputs": [
        {
          "internalType": "uint256",
          "name": "index",
          "type": "uint256"
        }
      ],
      "name": "isClaimed",
      "outputs": [
        {
          "internalType": "bool",
          "name": "",
          "type": "bool"
        }
      ],
      "stateMutability": "view",
      "type": "function"
    },
    {
      "inputs": [],
      "name": "merkleRoot",
      "outputs": [
        {
          "internalType": "bytes32",
          "name": "",
          "type": "bytes32"
        }
      ],
      "stateMutability": "view",
      "type": "function"
    },
    {
      "inputs": [],
      "name": "token",
      "outputs": [
        {
          "internalType": "contract IERC20",
          "name": "",
          "type": "address"
        }
      ],
      "stateMutability": "view",
      "type": "function"
    }
  ],
  "transactionHash": "0xe1323defb4ffff5121afa951120367be4d70dda488bfb271373f38d04a2bef3b",
  "args": [
    "0xf71C1CC5f89fcB9D15c67F5691cB8189eBB720c9",
    "0x1bfc1a75d9fe263a72006a2169fb1f4c97efd1d996b5cd3aaa2f01bcaa2110fa"
  ],
  "numDeployments": 1,
  "solcInputHash": "eafc6a116d7a77928a0c7819e5719f8a",
  "bytecode": "0x60c03461008a57601f61063f38819003918201601f19168301916001600160401b0383118484101761008f57808492604094855283398101031261008a5780516001600160a01b038116919082900361008a57602001519060805260a05260405161059990816100a682396080518181816075015261030b015260a05181818160f901526102730152f35b600080fd5b634e487b7160e01b600052604160045260246000fdfe6080604052600436101561001257600080fd5b60003560e01c80632e7ba6ef1461011c5780632eb4a7ab146100e15780639e34070f1461009e5763fc0c546a1461004857600080fd5b3461009957600036600319011261009957602060405173ffffffffffffffffffffffffffffffffffffffff7f0000000000000000000000000000000000000000000000000000000000000000168152f35b600080fd5b346100995760203660031901126100995760206100d76004358060081c6000526000602052600160ff60406000205492161b8091161490565b6040519015158152f35b346100995760003660031901126100995760206040517f00000000000000000000000000000000000000000000000000000000000000008152f35b346100995760803660031901126100995760243560043573ffffffffffffffffffffffffffffffffffffffff8216808303610099576064359260443567ffffffffffffffff851161009957366023860112156100995784600401359467ffffffffffffffff8611610099578560051b9260248483010190368211610099576101be878060081c6000526000602052600160ff60406000205492161b8091161490565b6104a85760405160208101918883526bffffffffffffffffffffffff199060601b166040820152846054820152605481526101fa607482610512565b519020916000976102116020604051970187610512565b8552602401602085015b828210610498575050509285935b835185101561026c5760208560051b850101519081811060001461025b5787526020526001604087205b940193610229565b908752602052600160408720610253565b86935085907f00000000000000000000000000000000000000000000000000000000000000000361042e578060081c80855284602052604085205490855284602052600160ff83161b1760408520556040517fa9059cbb0000000000000000000000000000000000000000000000000000000081528260048201528360248201526020816044818873ffffffffffffffffffffffffffffffffffffffff7f0000000000000000000000000000000000000000000000000000000000000000165af19081156104235785916103e4575b501561037a577f4ec90e965519d92681267467f775ada5bd214aa92c0dc93d90a5e880ce9ed0269260609260405192835260208301526040820152a180f35b608460405162461bcd60e51b815260206004820152602360248201527f4d65726b6c654469737472696275746f723a205472616e73666572206661696c60448201527f65642e00000000000000000000000000000000000000000000000000000000006064820152fd5b90506020813d60201161041b575b816103ff60209383610512565b8101031261041757518015158103610417578561033b565b8480fd5b3d91506103f2565b6040513d87823e3d90fd5b608460405162461bcd60e51b815260206004820152602160248201527f4d65726b6c654469737472696275746f723a20496e76616c69642070726f6f6660448201527f2e000000000000000000000000000000000000000000000000000000000000006064820152fd5b813581526020918201910161021b565b608460405162461bcd60e51b815260206004820152602860248201527f4d65726b6c654469737472696275746f723a2044726f7020616c72656164792060448201527f636c61696d65642e0000000000000000000000000000000000000000000000006064820152fd5b90601f8019910116810190811067ffffffffffffffff82111761053457604052565b7f4e487b7100000000000000000000000000000000000000000000000000000000600052604160045260246000fdfea26469706673582212203882d28d31c19f8fbb8016d042800149c1d47b1e7d7dda01b51e6450d96119ec64736f6c634300081c0033",
  "devdoc": {
    "kind": "dev",
    "methods": {},
    "version": 1
  },
  "userdoc": {
    "kind": "user",
    "methods": {},
    "version": 1
  },
  "storageLayout": {
    "storage": [
      {
        "astId": 2059,
        "contract": "contracts/MerkleDistributor.sol:MerkleDistributor",
        "label": "claimedBitMap",
        "offset": 0,
        "slot": "0",
        "type": "t_mapping(t_uint256,t_uint256)"
      }
    ],
    "types": {
      "t_mapping(t_uint256,t_uint256)": {
        "encoding": "mapping",
        "key": "t_uint256",
        "label": "mapping(uint256 => uint256)",
        "numberOfBytes": "32",
        "value": "t_uint256"
      },
      "t_uint256": {
        "encoding": "inplace",
        "label": "uint256",
        "numberOfBytes": "32"
      }
    }
  }
}